:1000000045C0000061C000005FC000005DC000008E
:100010005BC0000059C0000057C0000055C0000080
:1000200053C00000A3C000004FC000004DC000003E
:100030004BC0000049C0000047C0000045C00000A0
:100040006CC0000041C0000040C000003DC0000086
:100050003BC0000039C0000037C0000035C00000C0
:1000600033C0000031C000002FC000002DC00000D0
:100070002BC0000029C0000027C0000025C00000E0
:1000800023C0000021C000001FC0000011241FBEBB
:10009000CFEFD0E1DEBFCDBF11E0A0E0B1E0EEE3F5
:1000A000FAE100E00BBF02C007900D92AA39B10738
:1000B000D9F722E0AAE9B1E001C01D92AC32B20743
:1000C000E1F7F1D70C941D0D9BCF1F920F920FB645
:1000D0000F9211240BB60F922F933F934F935F9380
:1000E0006F937F938F939F93AF93BF93EF93FF9300
:1000F0000E942C09FF91EF91BF91AF919F918F9139
:100100007F916F915F914F913F912F910F900BBE17
:100110000F900FBE0F901F9018951F920F920FB661
:100120000F9211240BB60F922F933F934F935F932F
:100130006F937F938F939F93AF93BF93EF93FF93AF
:10014000EAD582E882BFFF91EF91BF91AF919F9175
:100150008F917F916F915F914F913F912F910F9070
:100160000BBE0F900FBE0F901F9018951F920F920D
:100170000FB60F9211240BB60F922F933F934F930C
:100180005F936F937F938F939F93AF93BF93EF93FF
:10019000FF9358D313D4FF91EF91BF91AF919F91EB
:1001A0008F917F916F915F914F913F912F910F9020
:1001B0000BBE0F900FBE0F901F901895E6D212D075
:1001C000A3D10E94ED080E94F6080E9403090E9434
:1001D0000F09789480E073D780E06BC7089590D1C1
:1001E000C9C3089536D40E94200920E049E350E0B5
:1001F0006AE370E089EA91E0F6D321E049E350E058
:100200006AE370E085EB91E0EED322E049E350E051
:100210006AE370E08BEB91E0E6D323E049E350E042
:100220006AE370E08FEA91E0DEC3089545D781303C
:1002300081F028F08230C1F0833009F108958FEA0F
:1002400091E0DED3813029F53AD788EC90E02FC4D5
:1002500008958FEA91E0D4D38130D9F482E02FD78A
:1002600080E991E024C408958FEA91E0C9D38130F8
:1002700081F483E024D788E592E019C408958FEAD9
:1002800091E0BED3813029F480E019D784E690E074
:100290000EC408950BD7823009F451C030F488237E
:1002A00051F0813009F46CC00895853031F1863009
:1002B00009F486C0089585EB91E0A2D3813031F432
:1002C00085E0F7D68CE291E0F2C308958BEB91E0E4
:1002D00097D3813031F485E0ECD68CE291E0E7C32E
:1002E000089589EA91E08CD3813009F089C086E0D5
:1002F000E0D688EE93E0DBC308958BEB91E080D3EA
:10030000813031F482E0D5D684EF91E0D0C30895F6
:1003100089EA91E075D3813031F486E0CAD688EE5F
:1003200093E0C5C3089585EB91E06AD3813009F06D
:1003300067C080E0BED684E690E0B9C308958BEB39
:1003400091E05ED3813029F4B4D680E293E0AFC36C
:10035000089589EA91E054D3813031F486E0A9D63A
:1003600088EE93E0A4C3089585EB91E049D38130F2
:1003700009F046C080E09DD684E690E098C30895D9
:100380008BEB91E03DD3813031F485E092D68CE265
:1003900091E08DD315C089EA91E032D3813031F4F8
:1003A00086E087D688EE93E082D30AC085EB91E0A1
:1003B00027D3813029F480E07CD684E690E077D39F
:1003C0008BEB91E01DD3813031F485E072D68CE265
:1003D00091E06DC3089585EB91E012D3813031F443
:1003E00080E067D684E690E062C308958BEB91E0ED
:1003F00007D3813029F485E05CD68CE291E057C3C5
:100400000895CF93DF934BD7882309F476C044D760
:1004100049D7EC016BE171E00E94290A892B31F484
:1004200084E690E044D380E044D667C060E271E0A7
:10043000CE010E94290A892B31F48CE291E037D356
:1004400085E037D65AC065E271E0CE010E94290AE4
:10045000892B31F484EF91E02AD382E02AD64DC073
:100460006DE271E0CE01F5D7892B31F480E293E0A3
:100470001ED381E01ED641C063E371E0CE01E9D70F
:10048000892B31F488EE93E012D386E012D635C082
:1004900069E371E0CE01DDD7892B31F484E690E089
:1004A00006D380E00CD629C06FE371E0CE01D1D72E
:1004B000892B41F488EC90E0FAD281E000D6CE019D
:1004C00006D61BC06AE471E0CE01C3D7892B41F484
:1004D00080E991E0ECD282E0F2D5CE01F8D50DC0F2
:1004E00065E571E0CE01B5D7892B39F488E592E056
:1004F000DED283E0E4D5CE01EAD5DF91CF91089535
:1005000095DEC8DE7ECF089504D377D571D4E2C2DC
:100510000895CCD5863029F48091C10190E0E0C2E5
:10052000089590E0DDC20895CF93C0D5C82F909173
:10053000C10180919A01981729F097D48091C10147
:1005400080939A01CC2331F0C63031F48091C101FF
:10055000811102C08AD41DC0C53031F0C63031F4DB
:100560008091C101853011F483D413C0C23031F0C1
:10057000C63031F48091C101823011F48ED409C0AB
:10058000C13031F0C63029F48091C101813009F4C5
:10059000AAD4CF910895BF92CF92DF92EF92FF92AB
:1005A0000F931F93CF93DF93CDB7DEB7EC970FB6C2
:1005B000F894DEBF0FBECDBF062FADECBCECB8D6B5
:1005C0006C01D694C794D694C794D694C79480915E
:1005D000040190910501C816D90629F4D0920501AD
:1005E000C0920401C2C07901B42E842F90E024E6A9
:1005F000029F800D911D112489D334EFE31631E061
:10060000F30610F48ED301C090D350D5182F82304A
:10061000C9F130F4882351F0813009F449C073C026
:100620008530D1F0863009F459C06DC0E6E0F1E0C4
:1006300081818F9380818F9380E691E09F938F9348
:10064000CE0101969F938F930DD70F900F900F902F
:100650000F900F900F9057C0E6E0F1E083818F93E9
:1006600082818F9380E691E09F938F93CE010196D4
:100670009F938F93F7D60F900F900F900F900F903E
:100680000F9041C0E6E0F1E085818F9384818F93E4
:1006900080E691E09F938F93CE0101969F938F9375
:1006A000E1D60F900F900F900F900F900F902BC0EE
:1006B000E6E0F1E087818F9386818F9386E691E073
:1006C0009F938F93CE0101969F938F93CBD60F90DC
:1006D0000F900F900F900F900F9015C0E6E0F1E093
:1006E00081858F9380858F9386E691E09F938F938A
:1006F000CE0101969F938F93B5D60F900F900F90D8
:100700000F900F900F907E018FE1E80EF11C8AE0B0
:10071000EBE6F1E0D70101900D928A95E1F7A70190
:1007200063E080E0B7D4DF92CF921F92BF921F9216
:100730000F9385E791E09F938F93FF92EF9292D66C
:10074000B701CE0101967AD6AC0161E081E0A2D476
:1007500080919B010FB6F894DEBF0FBECDBF181776
:1007600019F083D310939B01DFDEEC960FB6F8945B
:10077000DEBF0FBECDBFDF91CF911F910F91FF90D4
:10078000EF90DF90CF90BF90089510929E0110924D
:10079000A3011092A2011092A1011092A00181E088
:1007A00080939F01089588D4882351F14091A2013C
:1007B0005091A30149515C4F9A0136952795369582
:1007C000279536952795A5ECB0E2B2D592958295FE
:1007D0008F7089279F70892768EE73E0869F90014C
:1007E000879F300D969F300D1124CA01821B930BF9
:1007F0009093A3018093A201873E934011F502C01C
:10080000C4CF08958091A10190E0CB966CE370E095
:1008100060D58093A1018B33A1F48091A00190E079
:10082000CB966CE370E055D58093A0018B3349F4EF
:1008300080919F0190E0479668E170E04AD58093EF
:100840009F01089580919F0181110EC08091A001A8
:1008500081110AC08091A101811106C08091A2017D
:100860009091A301892B11F09ECF089510929E01C3
:1008700080E025D480E01DC4089580939F0160939B
:10088000A0014093A1013093A3012093A2010895F8
:100890000F931F93CF93DF930FD4C82F07D4D82F74
:1008A00011D48C01DD2309F448C080919E01C81742
:1008B00079F1C13031F06FE371E0C801CAD5892BFD
:1008C00039F420E030E043E060E080E0D6DF1DC096
:1008D000C23031F06AE471E0C801BBD5892B39F42C
:1008E00020E030E045E060E080E0C7DF0EC0C330CC
:1008F00031F065E571E0C801ACD5892B31F420E019
:1009000030E047E060E080E0B8DFC0939E0121C0A6
:1009100080919F0181111DC08091A001811119C09A
:100920008091A101811115C08091A2019091A30134
:10093000892B79F480E0BDD30CC020E030E040E0AA
:1009400060E081E09ADF10929E0180E0B8D380E001
:10095000B0D3DFDD2091A2013091A3014091A1012C
:100960006091A00180919F0116DEDF91CF911F91D0
:100970000F9108958DCF089553D583709078992362
:1009800024F401978C6F9F6F01968093C101813091
:1009900049F028F0823051F0833061F008951092D0
:1009A000C101089585E08093C101089582E080939C
:1009B000C101089581E08093C101089577D3863005
:1009C00089F480919C0190919D01019690939D01E5
:1009D00080939C01803D974028F0CEDF10929D01CE
:1009E00010929C010895FC01CB01718360835383B5
:1009F0004283248331E03583422F61E076C308953A
:100A0000CF93DF93EC016C818A819B81A6D3811106
:100A10000CC09D81913049F48FE39CE90197F1F777
:100A200000C000001D8280E011C0882361F08D812C
:100A300081110BC08FE39CE90197F1F700C0000022
:100A400081E08D8303C082E001C082E0DF91CF911D
:100A5000089587B3806287BB08958FB580688FBD86
:100A600008958FB58F738FBD08958436910528F052
:100A7000893823E1920720F405C084E690E002C0A3
:100A800088E893E19C0140E050E060E970ED83E08C
:100A900090E032D42150310937BD26BD86B597B5D7
:100AA00096958795969587959BBD8ABD0895CF931A
:100AB000DF93EC01D2DFCE01D8DF2FEF87E893E19F
:100AC000215080409040E1F700C00000CADFDF9174
:100AD000CF91089543E060E082E290E006C308957C
:100AE000BC0187EE93E090938100809380006115B4
:100AF000710529F410928700109286000895809164
:100B0000800090918100D1D370938700609386001C
:100B1000089582B1806F82B98FEF8093610008954C
:100B20000F931F93CF93DF93CDB7DEB72B970FB6FD
:100B3000F894DEBF0FBECDBF8C018BE0E0E1F1E0A9
:100B4000DE01119601900D928A95E1F78091A40142
:100B500090E0019665E070E0BCD38093A401823000
:100B600009F460C028F4882351F0813041F1C3C0FA
:100B7000833009F488C0843009F4ADC0BCC083B1AF
:100B8000806F83B9980136952795369527953695C8
:100B90002795A5ECB0E2CCD3929582958F708927EA
:100BA0009F708927E1E0F0E0EC0FFD1FE80FF91FCF
:100BB00080818093620083B18F7E83B99CC083B1B2
:100BC000806F83B998013695279536952795ABE7C1
:100BD000B4E1AED3AC01569547959A01ADECBCECAF
:100BE000A7D39695879596958795969587959C0119
:100BF000220F331F880F991F880F991F880F991F85
:100C0000820F931F9A01281B390BE1E0F0E0EC0FF3
:100C1000FD1FE20FF31F80818093620083B18F7DFF
:100C200083B969C083B1806F83B99801ADECBCEC26
:100C30007FD3AC0156954795569547955695479560
:100C40009A0176D3969587959695879596958795EB
:100C50009C01220F331F880F991F880F991F880F3F
:100C6000991F820F931F9A01281B390BE1E0F0E0D6
:100C7000EC0FFD1FE20FF31F80818093620083B1B0
:100C80008F7B83B938C083B1806F83B99801ADEC95
:100C9000BCEC4ED3969587959695879596958795B6
:100CA0009C01220F331F880F991F880F991F880FEF
:100CB000991F820F931F9801281B390BE1E0F0E088
:100CC000EC0FFD1FE20FF31F80818093620083B160
:100CD0008F7783B910C083B1806F83B983B18F7D63
:100CE00083B98091A501882321F08B8580936200D0
:100CF00002C0109262002B960FB6F894DEBF0FBEB2
:100D0000CDBFDF91CF911F910F9108959093A701CF
:100D10008093A60108958091A6019091A70100CF2C
:100D2000089581E08093A50108951092A50108958A
:100D300047C208956091C20168606093C2018EE469
:100D4000F7CF08956091C2016E7F6093C2018EE477
:100D5000EFCF08956091C20161606093C2018EE49B
:100D6000E7CF08956091C2016D7F6093C2018EE468
:100D7000DFCF08956091C20164606093C2018EE488
:100D8000D7DF8FE99FE00197F1F700C000000895D9
:100D90006091C2016B7F6093C2018EE4C9DF8FE96D
:100DA0009FE00197F1F700C000000895CF93C82F8E
:100DB000E1DF6091C2016F70C07F6C2B6093C20154
:100DC0008EE4B6DFE5DFCF910895CF93C82FEEDF35
:100DD0008C2F8295807FEADFCF910895CF93C82F23
:100DE000B1DFC0DFC7DF8C2FF0DFD2DFCF910895F6
:100DF000BED11092C2018FE59AEE0197F1F700C0C3
:100E00000000A0DFAFDF80E3D1DF8FE19EE4019738
:100E1000F1F700C0000080E3C9DF8FE99FE0019790
:100E2000F1F700C0000080E3C1DF80E2BFDF88E2AD
:100E3000D5DF81E0D3DF86E0D1DF8CE0CFDF7ACF72
:100E40000895CF93C82F86DF8DDF94DF8C2FBDDF11
:100E50009FDFCF9108956F70817090E4899F600D3E
:100E60001124862F8058BACF089581E0B7CF089516
:100E70008FEFE7DF60E080E0EEDF8FEFE2DF61E041
:100E800080E0E9DF8FEFDDDF62E080E0E4DF8FEF1D
:100E9000D8DF63E080E0DFCF08958FEFD2DF60E03E
:100EA00080E0D9DF8FEFCDDF61E080E0D4DF8FEF2E
:100EB000C8DF62E080E0CFDF8FEFC3DF63E080E078
:100EC000CADF8FEFBEDF64E080E0C5DF8FEFB9DF00
:100ED00065E080E0C0DF8FEFB4DF66E080E0BBDF7D
:100EE0008FEFAFCF08958FEFACDF60E080E0B3DF2E
:100EF0008FEFA7DF61E080E0AEDF8FEFA2DF62E07F
:100F000080E0A9DF8FEF9DDF63E080E0A4DF8FEF5B
:100F100098DF64E080E09FDF8FEF93DF65E080E0A3
:100F20009ADF8FEF8EDF66E080E095DF8FEF89DF5D
:100F300067E080E090DF8FEF84DF68E080E08BDFA8
:100F40008FEF7FDF69E080E086DF8FEF7ADF6AE096
:100F500080E081DF8FEF75DF6BE080E07CCF08956C
:100F600044E060E087E390E0C0D046E060E087E3E3
:100F700090E0BBD047E060E087E390E0B6D060E06F
:100F800084E390E0A9C0089540E064E088E390E045
:100F9000CAC0089541E064E088E390E0C4C00895C9
:100FA00040E066E088E390E0BEC0089541E067E07D
:100FB00088E390E0B8D08FE99FE00197F1F700C097
:100FC0000000089540E067E088E390E0ACD08FE94E
:100FD0009FE00197F1F700C000000895682F85E3B6
:100FE00090E09EC00895CF93C82FCEDFD9DFDEDF1B
:100FF0008C2FF4DFE7DFCF910895B2DF8FE59AEE13
:101000000197F1F700C0000088E3EDDF8FE19EE477
:101010000197F1F700C0000088E3E5DF8FE99FE06A
:101020000197F1F700C0000088E3DDDF88E3DBDF34
:1010300088E0D9DF81E0D7DF86E0D5DF8CE0D3CF51
:101040000895CF93C82FA6DFABDFB0DF8C2FC6DFAC
:10105000B9DFCF9108950F931F93CF93DF938C0146
:10106000C0E0D0E002C0EDDF2196F801EC0FFD1FDB
:1010700080818111F8CFDF91CF911F910F91089559
:101080006F70817090E4899F600D1124862F8058C5
:10109000AACF0895CF93DF93EA01F2DFCE01DBDF21
:1010A000DF91CF9108958AD89AD8FECF8091C3015D
:1010B00008958093C30108958091C6010895809397
:1010C000C60108958091C4019091C501089590933F
:1010D000C5018093C4010895611104C02FEFFC0184
:1010E00020830895FC011082089561110CC0FC0159
:1010F000508121E030E002C0220F331F4A95E2F711
:10110000252B20830895FC01508121E030E002C0AE
:10111000220F331F4A95E2F7209525232083089557
:10112000FC0160830895FC01413059F4208181E085
:1011300090E002C0880F991F6A95E2F7822B8083A6
:101140000895908121E030E002C0220F331F6A959C
:10115000E2F72095292320830895FC01808190E007
:1011600002C0959587956A95E2F78170089581B3DD
:10117000836081BB88E480937000109271000895B1
:1011800084EA80937400809174008823E4F70895C2
:101190008093730084E880937400809174008823A6
:1011A000E4F708958093730084E88093740080913D
:1011B00074008823E4F7089584E980937400089507
:1011C000CF93DF93D82FC62FDBDF8D2FE1DF8C2F5E
:1011D000E9DFF2DFDF91CF91089583B7856083BFA8
:1011E00087B7816087BF82E882BF08958EB583602C
:1011F0008EBD8EB588618EBD8FB582608FBD8FB577
:101200008F738FBD089585B5836085BD87B780686E
:1012100087BF85B5886085BD89EF83BD0895EAE8FD
:10122000F0E0808183608083808188618083EBE847
:10123000F0E080818260808380818068808308956F
:101240008AB188618AB98BB182608BB98AB18068B2
:101250008AB98FEC89B908959CB19A3091F4E091E4
:10126000A801AE2FB0E0A953BE4F9C93EF5FF0E012
:10127000E953FE4F10821092A80181E080932B0267
:1012800008958091A801E82FF0E0E953FE4F908384
:101290008F5F8093A801089510922B02089580918A
:1012A0002B02089587EC91E00895AA1BBB1B51E126
:1012B00007C0AA1FBB1FA617B70710F0A61BB70BC6
:1012C000881F991F5A95A9F780959095BC01CD016B
:1012D000089597FB072E16F4009406D077FD08D0EA
:1012E000E4DF07FC05D03EF4909581959F4F08956B
:1012F000709561957F4F0895052E97FB16F4009425
:101300000FD057FD05D023D007FC02D046F408C00B
:1013100050954095309521953F4F4F4F5F4F089521
:1013200090958095709561957F4F8F4F9F4F089551
:10133000A29FB001B39FC001A39F700D811D112416
:10134000911DB29F700D811D1124911D0895A1E280
:101350001A2EAA1BBB1BFD010DC0AA1FBB1FEE1F2F
:10136000FF1FA217B307E407F50720F0A21BB30B7A
:10137000E40BF50B661F771F881F991F1A9469F7F6
:1013800060957095809590959B01AC01BD01CF0152
:1013900008958F929F92AF92BF92CF92DF92EF9279
:1013A000FF92CF93DF93EC01688179818A819B81E1
:1013B000611571058105910521F464E279ED8BE5F4
:1013C00097E02DE133EF41E050E096DF49015A010B
:1013D0009B01AC01A7EAB1E420D36B017C01ACEE28
:1013E000B4EFA501940125D3DC01CB018C0D9D1D2B
:1013F000AE1DBF1DB7FF03C00197A109B048888388
:101400009983AA83BB839F77DF91CF91FF90EF9061
:10141000DF90CF90BF90AF909F908F900895B9CFFD
:1014200080E091E0B6CFA0E0B0E08093000190931F
:101430000101A0930201B09303010895FB01DC01B7
:101440000D900020E9F7119701900D920020E1F72F
:101450000895FB01DC018D91019080190110D9F3F1
:10146000990B08950F931F93CF93DF93CDB7DEB7FA
:101470002E970FB6F894DEBF0FBECDBF0D891E8923
:1014800086E08C831A8309838FEF9FE79E838D8389
:10149000AE01475E5F4F6F89788DCE01019610D007
:1014A000EF81F885E00FF11F10822E960FB6F894A9
:1014B000DEBF0FBECDBFDF91CF911F910F91089579
:1014C0002F923F924F925F926F927F928F929F9254
:1014D000AF92BF92CF92DF92EF92FF920F931F9342
:1014E000CF93DF93CDB7DEB72B970FB6F894DEBF5F
:1014F0000FBECDBF6C017B018A01FC0117821682F1
:10150000838181FFBFC1CE0101963C01F601938129
:10151000F70193FD859193FF81917F01882309F461
:10152000ADC1853239F493FD859193FF81917F019F
:10153000853221F4B60190E0D6D1E8CF912C212C50
:10154000312CFFE1F315D8F08B3279F038F480328A
:1015500079F08332A1F4232D20611DC08D3261F01A
:10156000803369F4232D216016C0832D8260382ECC
:10157000E32DE4603E2E2AC0F32DF8601DC037FC39
:101580002DC020ED280F2A3040F08E32B9F436FC01
:1015900075C1232D2064322E19C036FE06C08AE0A4
:1015A000989E200D1124922E11C0EAE02E9E200D4F
:1015B0001124222EF32DF0623F2E08C08C3621F428
:1015C000832D8068382E02C0883641F4F70193FDE0
:1015D000859193FF81917F018111B3CF982F9F7DDA
:1015E0009554933028F40C5F1F4F9FE399830DC0EF
:1015F000833631F0833771F0833509F055C020C050
:10160000F801808189830E5F1F4F88248394912C79
:10161000530112C02801F2E04F0E511CF801A080C6
:10162000B18036FE03C0692D70E002C06FEF7FEF1E
:10163000C5014ED14C018201F32DFF773F2E15C01D
:10164000280122E0420E511CF801A080B18036FE34
:1016500003C0692D70E002C06FEF7FEFC5012DD18F
:101660004C01F32DF0683F2E820133FC19C0822D0E
:1016700090E088169906A0F4B60180E290E033D19C
:101680002A94F5CFF50137FC859137FE81915F01F2
:10169000B60190E028D121102A9421E0821A910805
:1016A0008114910479F7E1C0843611F0893639F557
:1016B000F80137FE07C060817181828193810C5FE0
:1016C0001F4F08C060817181072E000C880B990B99
:1016D0000E5F1F4FF32DFF763F2E97FF09C09095A9
:1016E0008095709561957F4F8F4F9F4FF0683F2E8B
:1016F0002AE030E0A30133D1882E861844C0853714
:1017000031F4232D2F7EB22E2AE030E025C0932D18
:10171000997FB92E8F36C1F018F4883579F0AEC0B4
:10172000803719F0883721F0A9C0E92FE061BE2E7B
:10173000B4FE0DC0FB2DF460BF2E09C034FE0AC0FC
:10174000292F2660B22E06C028E030E005C020E137
:1017500030E002C020E132E0F801B7FE07C060814E
:101760007181828193810C5F1F4F06C060817181FE
:1017700080E090E00E5F1F4FA301F1D0882E861805
:10178000FB2DFF773F2E36FE0DC0232D2E7FA22E80
:10179000891458F434FE0BC032FC09C0832D8E7EB0
:1017A000A82E05C0B82CA32C03C0B82C01C0B92C9E
:1017B000A4FE0FC0FE01E80DF11D8081803321F4ED
:1017C0009A2D997EA92E09C0A2FE06C0B394B394A7
:1017D00004C08A2D867809F0B394A3FC10C0A0FE43
:1017E00006C0B21480F4280C922C9B180DC0B214C1
:1017F00058F4B60180E290E076D0B394F8CFB214FA
:1018000018F42B1802C0982C212CA4FE0FC0B6018E
:1018100080E390E068D0A2FE16C0A1FC03C088E778
:1018200090E002C088E590E0B6010CC08A2D867871
:1018300051F0A1FE02C08BE201C080E2A7FC8DE264
:10184000B60190E050D0891430F4B60180E390E006
:101850004AD09A94F8CF8A94F301E80DF11D808163
:10186000B60190E040D08110F6CF222009F44ECE90
:10187000B60180E290E037D02A94F7CFF601868156
:10188000978102C08FEF9FEF2B960FB6F894DEBFC3
:101890000FBECDBFDF91CF911F910F91FF90EF90C1
:1018A000DF90CF90BF90AF909F908F907F906F9080
:1018B0005F904F903F902F900895FC0105906150EC
:1018C00070400110D8F7809590958E0F9F1F089556
:1018D000FC016150704001900110D8F780959095FF
:1018E0008E0F9F1F08950F931F93CF93DF93FB01DC
:1018F000238121FD03C08FEF9FEF2CC022FF16C074
:1019000046815781248135814217530744F4A081D1
:10191000B1819D012F5F3F4F318320838C932681BE
:1019200037812F5F3F4F3783268314C08B01EC0133
:10193000FB010084F185E02D0995892BE1F6D801A2
:1019400016968D919C911797019617969C938E935E
:101950001697CE01DF91CF911F910F910895FA0153
:10196000AA27283051F1203181F1E8946F936E7FDE
:101970006E5F7F4F8F4F9F4FAF4FB1E03ED0B4E0CF
:101980003CD0670F781F891F9A1FA11D680F791F10
:101990008A1F911DA11D6A0F711D811D911DA11D21
:1019A00020D009F468943F912AE0269F1124301931
:1019B000305D3193DEF6CF010895462F4770405DCC
:1019C0004193B3E00FD0C9F7F6CF462F4F70405D7B
:1019D0004A3318F0495D31FD4052419302D0A9F7D6
:1019E000EACFB4E0A6959795879577956795BA95D0
:1019F000C9F700976105710508959B01AC010A2E96
:101A000006945795479537952795BA95C9F7620F6C
:101A1000731F841F951FA01D08958ADCA59F900D3C
:101A2000B49F900DA49F800D911D11240895B7FFC0
:0E1A3000F4CFF3DF821B930B0895F894FFCFE1
:101A3E0001000000FF00840188018C0190019501D6
:101A4E003F065B4F666D7D277F67804F46460A00D7
:101A5E004C4F570A004D4944444C450A00484947EB
:101A6E00480A004155544F0A004E4F4E450A005445
:101A7E00494D455F336D696E0A0054494D455F35DA
:101A8E006D696E0A0054494D455F376D696E0A00E7
:101A9E00533A25732000533A25730054696D6572CD
:101AAE002053657400253032643A253032643A256D
:101ABE00303264004F4646004C4F57004D494400AB
:0A1ACE0048494748004155544F00B5
:00000001FF
